:100000000C94B2000C94DA000C94DA000C944601C3
:100010000C9470010C949A010C94DA000C94DA00A0
:100020000C94DA000C94DA000C94DA000C94DA00E8
:100030000C94DA000C94DA000C94DA000C94DA00D8
:100040000C94CE040C94DA000C94F3050C94410645
:100050000C94DA000C94DA000C94DA000C94DA00B8
:100060000C94DA000C94DA0000C2010001001100C7
:1000700011000C0000E100000A002500250021000D
:10008000009600001900390039003600127A00008D
:100090001F004600460044008070000022004D0012
:1000A0004D004A00004B00003600750075007200DC
:1000B000403800004A009C009C0099008025000008
:1000C0007200EC00EC00E900C0120000E900DA0167
:1000D000DA01D70160090000D701B603B603B30304
:1000E000B0040000B3036E076E076B0758020000F0
:1000F0006E07DC0EDC0ED80E2C010000DC0EC11DDC
:10010000C11DBE1D00000000240027002A000000C1
:100110000000250028002B0000000000230026001E
:10012000290004040404040404040202020202027A
:1001300003030303030301020408102040800102AB
:10014000040810200102040810200000000700022B
:1001500001000003040600000000000000007C0411
:10016000AD07750411241FBECFEFD8E0DEBFCDBFB1
:1001700011E0A0E0B1E0EEECF1E102C005900D92DB
:10018000A236B107D9F712E0A2E6B1E001C01D9294
:10019000A537B107E1F711E0C2E6D1E004C022972C
:1001A000FE010E94D608CE35D107C9F70E94030888
:1001B0000C94DA080C9400000F931F93CF93DF93F5
:1001C000FC01738D76957170A685B785958577232B
:1001D00029F08C91892309F454C004C08C9189239F
:1001E00009F04FC08389948920E001972FEF8F3F5A
:1001F0009207D9F7C589D689A685B785158560E0A8
:1002000031E040E050E000E0CE01202F01972FEFD9
:100210008F3F9207D9F78C91812311F0632B03C094
:10022000832F80956823330F4F5F5F4F4830510510
:1002300059F78789908D20E001972FEF8F3F920724
:10024000D9F7711160958091A4012091A50190E0EA
:1002500001968F73907030E08217930779F0E091E8
:10026000A401F0E0EC59FE4F60838091A40190E07E
:1002700001968F7390708093A40103C0838D816079
:10028000838FDF91CF911F910F9108951F920F924D
:100290000FB60F9211242F933F934F935F936F9359
:1002A0007F938F939F93AF93BF93EF93FF9380912F
:1002B000620190916301009711F00E94DC00FF91B0
:1002C000EF91BF91AF919F918F917F916F915F91CE
:1002D0004F913F912F910F900FBE0F901F90189547
:1002E0001F920F920FB60F9211242F933F934F93AB
:1002F0005F936F937F938F939F93AF93BF93EF938E
:10030000FF938091620190916301009711F00E9428
:10031000DC00FF91EF91BF91AF919F918F917F9101
:100320006F915F914F913F912F910F900FBE0F9062
:100330001F9018951F920F920FB60F9211242F93B2
:100340003F934F935F936F937F938F939F93AF935D
:10035000BF93EF93FF9380916201909163010097A7
:1003600011F00E94DC00FF91EF91BF91AF919F913E
:100370008F917F916F915F914F913F912F910F904E
:100380000FBE0F901F901895CF92DF92EF92FF92C1
:100390000F931F93CF93DF93EC017A018B011A8E99
:1003A000198E188E1F8A1E8A1D8A1C8A1B8A20E0BD
:1003B00030E06901CC0CDD1CC20ED31EB601660F05
:1003C000771F660F771FAB0148595F4FFA01859180
:1003D0009591A591B4918E159F05A007B107E9F4F9
:1003E000FB01E459FF4F859194919C8B8B8BFB0112
:1003F000E259FF4F859194919E8B8D8BFB01E059C3
:10040000FF4F85919491988F8F8BFB01EE58FF4F92
:10041000859194919A8F898F06C02F5F3F4F2D3021
:10042000310509F0C6CF8F89988D892B09F449C011
:100430004C85463108F03DC090916800483010F47A
:1004400084E005C04E3010F082E001C081E0892BCD
:1004500080936800483028F4EDE6F0E0ADE6B0E0C7
:100460000BC04E3028F0ECE6F0E0ACE6B0E004C0A3
:10047000EBE6F0E0ABE6B0E05081483040F481E0DC
:1004800090E002C0880F991F4A95E2F710C0242F10
:1004900030E04E3018F42850304002C02E5030402A
:1004A00081E090E002C0880F991F2A95E2F7852B22
:1004B0008C93898D9A8D20E001972FEF8F3F9207C3
:1004C000D9F780916201909163018C179D0781F0AB
:1004D0008B8D8E7F8B8F9FB7F8941092A4018091A3
:1004E000A4018093A501D0936301C09362019FBFD3
:1004F000DF91CF911F910F91FF90EF90DF90CF9000
:100500000895FC014485463180F5483028F4EDE635
:10051000F0E0ADE6B0E00BC04E3028F4EBE6F0E0E2
:10052000ABE6B0E004C0ECE6F0E0ACE6B0E0508151
:10053000483040F481E090E002C0880F991F4A954E
:10054000E2F710C0242F30E04E3018F4285030402D
:1005500002C02E50304081E090E002C0880F991F09
:100560002A95E2F7809585238C930895FC0186E413
:1005700091E091838083CF010E94810208952091B0
:100580006201309163012817390731F49091A50178
:100590008091A401981719F42FEF3FEF0FC0E0915D
:1005A000A501F0E0EC59FE4F20818091A50190E07B
:1005B00001968F7390708093A50130E0C901089572
:1005C00020916201309163012817390719F020E06A
:1005D00030E00EC08091A4012091A50190E0805CE4
:1005E0009F4F821B910960E470E00E948B089C0180
:1005F000C90108950F931F93DC0159968D919C9129
:100600005A97892B49F481E090E013969C938E933E
:10061000129720E030E097C00FB7F8945B968C916A
:100620005B975196ED91FC91529750962C91509773
:1006300081FF8DC08081822B808359968D919C9102
:100640005A97059620E001972FEF8F3F9207D9F731
:100650005B968C915B9781FF35C031E040E050E0C4
:1006600070E010E0832F90E0862397235196ED9160
:10067000FC91529750962C915097892B29F08081AC
:1006800020952823208303C08081822B8083599664
:100690008D919C915A97212F01972FEF8F3F9207B1
:1006A000D9F7330F4F5F5F4F48305105D9F6519658
:1006B000ED91FC915297908150968C915097809536
:1006C000892333C031E040E050E070E010E0832F38
:1006D00090E0862397235196ED91FC915297509686
:1006E0002C915097892B21F08081822B808304C02C
:1006F000808120952823208359968D919C915A972B
:10070000212F01972FEF8F3F9207D9F7330F4F5FBC
:100710005F4F48305105D9F65196ED91FC915297B3
:10072000808150969C915097892B80830FBF59965A
:100730008D919C915A9720E001972FEF8F3F920760
:10074000D9F721E030E0C9011F910F910895808110
:1007500020952823208371CF20916201309163017D
:100760002817390749F49FB7F8941092A401809193
:10077000A4018093A5019FBF08952091620130914B
:1007800063012817390731F49091A5018091A401E4
:10079000981719F42FEF3FEF0AC0E091A501F0E0A0
:1007A000EC59FE4F8081282F332727FD3095C90152
:1007B00008951F93CF93DF93EC01162F862F60E0EF
:1007C0000E945F058B8D81FD04C0812F61E00E9436
:1007D0009E051C87212F30E0C9018A5C9E4FFC01D9
:1007E00084918D872E5D3E4FF9016491E62FF0E0F4
:1007F000EE0FFF1FE85EFE4F859194919F878E87D5
:10080000DF91CF911F910895FF920F931F938C0159
:10081000F62E862F61E00E945F058F2D61E00E9419
:100820009E058F2D90E0FC01EA5CFE4FE491D8011B
:100830005096EC9350978E5D9E4FFC016491E62F8D
:10084000F0E0EE0FFF1FE25FFE4F8591949152960C
:100850009C938E9351971F910F91FF900895FF9253
:100860000F931F938C01F62EFC011382128288EEE7
:1008700093E0A0E0B0E084839583A683B78386E409
:1008800091E091838083148A138A168A158A108EC8
:10089000178A128E118E838D2170220F8C7F822BEE
:1008A000838FC801642F0E940404C8016F2D0E9429
:1008B000D9031F910F91FF9008958130910559F44C
:1008C0006F5F7F4F89F486EA91E062E043E020E0C9
:1008D0000E942F040895892B39F46F5F7F4F21F414
:1008E00086EA91E00E94B602089580E090E06FEF02
:1008F0007FEF0E945D04089581E090E06FEF7FEF4D
:100900000E945D0408950F931F9383E592E040E8F1
:1009100055E260E070E00E947C0606EA11E0C80142
:1009200040E855E260E070E00E94C401C80160E068
:1009300071E00E947808C80162E371E00E947808C3
:100940001F910F910895EF92FF920F931F930E94B2
:1009500016057B018C0112C086EA91E00E94BF025D
:10096000682F772767FD709583E592E00E946D07F9
:1009700086EA91E00E94E002892B71F70E94160539
:100980006E197F09800B910B683C710581059105FB
:1009900078F31F910F91FF90EF9008951F920F929F
:1009A0000FB60F9211242F933F938F939F93AF9382
:1009B000BF938091C6019091C701A091C801B091E9
:1009C000C9013091CA010196A11DB11D232F2D5FD0
:1009D0002D3720F02D570196A11DB11D2093CA017E
:1009E0008093C6019093C701A093C801B093C90139
:1009F0008091C2019091C301A091C401B091C50141
:100A00000196A11DB11D8093C2019093C301A093D3
:100A1000C401B093C501BF91AF919F918F913F9158
:100A20002F910F900FBE0F901F9018958FB7F894CD
:100A30002091C6013091C7014091C8015091C90170
:100A40008FBFB901CA010895789484B5826084BDCE
:100A500084B5816084BD85B5826085BD85B58160C2
:100A600085BDEEE6F0E0808181608083E1E8F0E022
:100A70001082808182608083808181608083E0E851
:100A8000F0E0808181608083E1EBF0E08081846030
:100A90008083E0EBF0E0808181608083EAE7F0E032
:100AA0008081846080838081826080838081816096
:100AB00080838081806880831092C1000895CF93E5
:100AC000DF93482F50E0CA018A5C9E4FFC013491AD
:100AD0004E5D5E4FFA018491882369F190E0880FA2
:100AE000991FFC01EC5FFE4FA591B491FC01E25F00
:100AF000FE4FC591D491662351F42FB7F8948C9191
:100B0000932F909589238C93888189230BC0623021
:100B100061F42FB7F8948C91932F909589238C933F
:100B20008881832B88832FBF06C09FB7F8948C9150
:100B3000832B8C939FBFDF91CF910895482F50E076
:100B4000CA01865B9E4FFC012491CA018A5C9E4FBC
:100B5000FC0194914E5D5E4FFA013491332309F408
:100B600040C0222351F1233071F0243028F4213089
:100B7000A1F0223011F514C02630B1F02730C1F0B9
:100B80002430D9F404C0809180008F7703C0809115
:100B900080008F7D8093800010C084B58F7702C065
:100BA00084B58F7D84BD09C08091B0008F7703C06C
:100BB0008091B0008F7D8093B000E32FF0E0EE0FC6
:100BC000FF1FE25FFE4FA591B4912FB7F894662303
:100BD00021F48C919095892302C08C91892B8C9360
:100BE0002FBF089508951F920F920FB60F921124F0
:100BF0002F933F934F938F939F93EF93FF93809106
:100C0000C00082FD1DC04091C60020910B023091B2
:100C10000C022F5F3F4F2F73307080910D02909127
:100C20000E022817390771F0E0910B02F0910C02C7
:100C3000E553FE4F408330930C0220930B0202C019
:100C40008091C600FF91EF919F918F914F913F91BD
:100C50002F910F900FBE0F901F901895E0915F029B
:100C6000F0916002E05CFF4F819191912081318190
:100C7000821B930B8F739070892B11F00E94F205E9
:100C800008951F920F920FB60F9211242F933F9346
:100C90008F939F93EF93FF9320914F0230915002D7
:100CA00080915102909152022817390731F48091B6
:100CB000C1008F7D8093C10014C0E0915102F0917A
:100CC0005202E15FFD4F20818091510290915202CA
:100CD00001968F73907090935202809351022093EB
:100CE000C600FF91EF919F918F913F912F910F90AF
:100CF0000FBE0F901F901895AF92BF92DF92EF92A8
:100D0000FF920F931F93CF93DF93EC017A018B0136
:100D1000DD24403081EE580780E0680780E07807E6
:100D200011F0DD24D39491E0A92EB12CEC89FD893A
:100D3000DD2069F0C50108A002C0880F991F0A9440
:100D4000E2F7808360E079E08DE390E005C01082F7
:100D500060E874E88EE190E0A80197010E949E0887
:100D60002150304040405040569547953795279543
:100D700080E12030380720F0DD2011F0DD24D6CFCF
:100D8000E889F9893083EA89FB89208319A2EE89F1
:100D9000FF89408121E030E0C9010C8C02C0880F3E
:100DA000991F0A94E2F7482B4083EE89FF8940811E
:100DB000C9010D8C02C0880F991F0A94E2F7482BD5
:100DC0004083EE89FF894081C9010E8C02C0880FE3
:100DD000991F0A94E2F7482B4083EE89FF898081AE
:100DE0000F8C02C0220F331F0A94E2F720952823AC
:100DF0002083DF91CF911F910F91FF90EF90DF90B3
:100E0000BF90AF900895DC011C96ED91FC911D9769
:100E1000E05CFF4F2191319180819181281B390B3A
:100E20002F733070C9010895DC011C96ED91FC917F
:100E30001D97E05CFF4F20813181E054F040DF01DD
:100E4000AE5BBF4F8D919C9111972817390719F40C
:100E50002FEF3FEF07C08D919C91E80FF91F808124
:100E6000282F30E0C9010895DC011C96ED91FC911A
:100E70001D97E05CFF4F20813181E054F040DF019D
:100E8000AE5BBF4F8D919C9111972817390719F4CC
:100E90002FEF3FEF10C08D919C911197E80FF91F34
:100EA00020818D919C91119701968F73907011966E
:100EB0009C938E9330E0C9010895DC0191968C914A
:100EC0009197882339F05496ED91FC915597808144
:100ED00086FFF9CF91961C920895CF93DF93EC0192
:100EE000EE85FF85E05CFF4F20813181E054F040CA
:100EF0002F5F3F4F2F733070DF01AE5BBF4F8D917F
:100F00009C91119728173907D1F3E05CFF4F80813E
:100F10009181E054F040E80FF91F6083EE85FF8572
:100F2000E05CFF4F31832083EE89FF89208181E0DF
:100F300090E00F8C02C0880F991F0A94E2F7282BCB
:100F4000208381E089A3EC89FD898081806480838E
:100F500081E090E0DF91CF910895109256021092B7
:100F6000550288EE93E0A0E0B0E0809357029093A2
:100F70005802A0935902B0935A0286E591E09093EB
:100F80005402809353028BEC91E090936002809323
:100F90005F028FE092E0909362028093610285ECA1
:100FA00090E0909364028093630284EC90E09093CD
:100FB00066028093650280EC90E0909368028093D3
:100FC000670281EC90E090936A028093690282EC60
:100FD00090E090936C0280936B0286EC90E090938B
:100FE0006E0280936D0284E080936F0283E08093B1
:100FF000700287E08093710285E08093720281E045
:10100000809373020895CF93DF930E9424050E947A
:101010008304CEE2D6E00E94A3042097E1F30E946D
:101020002E06F9CFCF92DF92EF92FF920F931F938C
:10103000CF93DF937C016B018A01C0E0D0E00FC049
:10104000D6016D916D01D701ED91FC910190F08178
:10105000E02DC7010995C80FD91F01501040011597
:10106000110571F7CE01DF91CF911F910F91FF9084
:10107000EF90DF90CF900895EF92FF920F931F9320
:101080008C01DC01ED91FC910190F081E02D6DE08F
:1010900009957C01D801ED91FC910190F081E02D42
:1010A000C8016AE009959C012E0D3F1DC9011F91E1
:1010B0000F91FF90EF900895CF93DF93EC016115AE
:1010C000710519F420E030E00FC0DB010D90002025
:1010D000E9F71197A61BB70BE881F9810280F3812C
:1010E000E02DAD0109959C01C901DF91CF910895D3
:1010F000EF92FF920F931F937C010E945C088C017A
:10110000C7010E943C08080F191FC8011F910F91C9
:10111000FF90EF90089597FB092E07260AD077FDE0
:1011200004D02ED006D000201AF4709561957F4F20
:101130000895F6F7909581959F4F0895A1E21A2E94
:10114000AA1BBB1BFD010DC0AA1FBB1FEE1FFF1F6B
:10115000A217B307E407F50720F0A21BB30BE40BBB
:10116000F50B661F771F881F991F1A9469F7609502
:101170007095809590959B01AC01BD01CF010895BC
:10118000AA1BBB1B51E107C0AA1FBB1FA617B707AD
:1011900010F0A61BB70B881F991F5A95A9F78095C9
:1011A0009095BC01CD010895EE0FFF1F0590F491BD
:1011B000E02D099411E0C2E6D1E004C0FE010E94D6
:0E11C000D6082296C436D107C9F7F894FFCF9F
:1011CE0024504D544B3331342C302C312C302C30A8
:1011DE002C302C302C302C302C302C302C302C3021
:1011EE002C302C302C302C302C302C302C302A3211
:1011FE00390024504D544B3232302C3130302A329B
:10120E00460000000000FA021208E002BF02BD0311
:10121E00AC03000000006D07120803073407140723
:02122E005D075A
:00000001FF
