:100000000C94BB000C94E3000C94E3000C94780275
:100010000C94A2020C94CC020C94E3000C94E30028
:100020000C94E3000C94E3000C94E3000C94E300C4
:100030000C94E3000C94E3000C94E3000C94E300B4
:100040000C94C0190C94E3000C943E1B0C948C1B74
:100050000C94E3000C94E3000C94E3000C94E30094
:100060000C94E3000C94E30000C2010001001100B5
:1000700011000C0000E100000A002500250021000D
:10008000009600001900390039003600127A00008D
:100090001F004600460044008070000022004D0012
:1000A0004D004A00004B00003600750075007200DC
:1000B000403800004A009C009C0099008025000008
:1000C0007200EC00EC00E900C0120000E900DA0167
:1000D000DA01D70160090000D701B603B603B30304
:1000E000B0040000B3036E076E076B0758020000F0
:1000F0006E07DC0EDC0ED80E2C010000DC0EC11DDC
:10010000C11DBE1D7C3C3E5E2B3D3F2F5B5D3B2CED
:100110002A225C0000000000240027002A000000C2
:100120000000250028002B0000000000230026000E
:10013000290004040404040404040202020202026A
:10014000030303030303010204081020408001029B
:10015000040810200102040810200000000700021B
:100160000100000304060000000000000000A906D2
:10017000D318F81CCC1811241FBECFEFD8E0DEBF77
:10018000CDBF11E0A0E0B1E0E8EAFCE302C00590D9
:100190000D92A83CB107D9F715E0A8ECB1E001C079
:1001A0001D92A035B107E1F711E0C4E7D1E004C02A
:1001B0002297FE010E94431ECE36D107C9F70E9446
:1001C0004E1D0C94471E0C940000CF93DF93BC018E
:1001D0008230910510F462E070E0A0914E05B0917C
:1001E0004F05ED01E0E0F0E040E050E021C0888103
:1001F00099818617970769F48A819B81309719F056
:100200009383828304C090934F0580934E05FE0133
:1002100034C06817790738F44115510519F084176F
:10022000950708F4AC01FE018A819B819C01E901DC
:100230002097E9F641155105A9F1CA01861B970BD4
:10024000049708F4BA01E0E0F0E02AC08D919C9197
:10025000119784179507F9F46417750781F41296BE
:100260008D919C911397309719F09383828304C0EA
:1002700090934F0580934E05FD0132964CC0CA0104
:10028000861B970BFD01E80FF91F6193719302978D
:100290008D939C9340C0FD01828193819C01D90183
:1002A0001097A1F680914C0590914D05892B41F452
:1002B000809187019091880190934D0580934C0522
:1002C0004091890150918A014115510541F44DB782
:1002D0005EB78091850190918601481B590B209152
:1002E0004C0530914D05CA01821B930B8617970769
:1002F00080F0AB014E5F5F4F8417950750F0420FBF
:10030000531F50934D0540934C05F9016193719330
:1003100002C0E0E0F0E0CF01DF91CF910895CF93EC
:10032000DF93009709F450C0EC0122971B821A82D8
:10033000A0914E05B0914F05109709F140E050E0B3
:10034000AC17BD0708F1BB83AA83FE01219131914F
:10035000E20FF31FAE17BF0779F48D919C911197AF
:10036000280F391F2E5F3F4F3983288312968D91B6
:100370009C9113979B838A834115510571F4D09307
:100380004F05C0934E0520C012968D919C911397F6
:10039000AD01009711F0DC01D3CFFA01D383C28302
:1003A00021913191E20FF31FCE17DF0769F48881A5
:1003B0009981280F391F2E5F3F4FFA013183208327
:1003C0008A819B8193838283DF91CF910895FB0182
:1003D000DC0104C08D910190801921F441505040FE
:1003E000C8F7881B990B0895FC018191861721F0AD
:1003F0008823D9F7992708953197CF010895FB01F4
:10040000DC014150504048F001900D920020C9F7A6
:1004100001C01D9241505040E0F708950F931F9383
:10042000CF93DF93FC01738D76957170A685B785A8
:100430009585772329F08C91892309F454C004C051
:100440008C91892309F04FC08389948920E001971A
:100450002FEF8F3F9207D9F7C589D689A685B78533
:10046000158560E031E040E050E000E0CE01202F53
:1004700001972FEF8F3F9207D9F78C91812311F0CD
:10048000632B03C0832F80956823330F4F5F5F4F2B
:100490004830510559F78789908D20E001972FEF5B
:1004A0008F3F9207D9F77111609580910A022091D0
:1004B0000B0290E001968F73907030E082179307E3
:1004C00079F0E0910A02F0E0E653FE4F60838091FC
:1004D0000A0290E001968F73907080930A0203C025
:1004E000838D8160838FDF91CF911F910F9108954C
:1004F0001F920F920FB60F9211242F933F934F9399
:100500005F936F937F938F939F93AF93BF93EF937B
:10051000FF938091C8019091C901009711F00E944A
:100520000E02FF91EF91BF91AF919F918F917F91BB
:100530006F915F914F913F912F910F900FBE0F9050
:100540001F9018951F920F920FB60F9211242F93A0
:100550003F934F935F936F937F938F939F93AF934B
:10056000BF93EF93FF938091C8019091C9010097C9
:1005700011F00E940E02FF91EF91BF91AF919F91F8
:100580008F917F916F915F914F913F912F910F903C
:100590000FBE0F901F9018951F920F920FB60F92DB
:1005A00011242F933F934F935F936F937F938F9378
:1005B0009F93AF93BF93EF93FF938091C801909166
:1005C000C901009711F00E940E02FF91EF91BF91B7
:1005D000AF919F918F917F916F915F914F913F91DB
:1005E0002F910F900FBE0F901F901895CF92DF9212
:1005F000EF92FF920F931F93CF93DF93EC017A0159
:100600008B011A8E198E188E1F8A1E8A1D8A1C8ACB
:100610001B8A20E030E06901CC0CDD1CC20ED31E29
:10062000B601660F771F660F771FAB0148595F4F02
:10063000FA0185919591A591B4918E159F05A0071A
:10064000B107E9F4FB01E459FF4F859194919C8B2C
:100650008B8BFB01E259FF4F859194919E8B8D8B83
:10066000FB01E059FF4F85919491988F8F8BFB018F
:10067000EE58FF4F859194919A8F898F06C02F5F16
:100680003F4F2D30310509F0C6CF8F89988D892BCA
:1006900009F449C04C85463108F03DC0909168008E
:1006A000483010F484E005C04E3010F082E001C004
:1006B00081E0892B80936800483028F4EDE6F0E073
:1006C000ADE6B0E00BC04E3028F0ECE6F0E0ACE672
:1006D000B0E004C0EBE6F0E0ABE6B0E050814830BB
:1006E00040F481E090E002C0880F991F4A95E2F73C
:1006F00010C0242F30E04E3018F42850304002C093
:100700002E50304081E090E002C0880F991F2A955A
:10071000E2F7852B8C93898D9A8D20E001972FEF3E
:100720008F3F9207D9F78091C8019091C9018C172A
:100730009D0781F08B8D8E7F8B8F9FB7F8941092E1
:100740000A0280910A0280930B02D093C901C093E0
:10075000C8019FBFDF91CF911F910F91FF90EF9044
:10076000DF90CF900895FC014485463180F54830F4
:1007700028F4EDE6F0E0ADE6B0E00BC04E3028F432
:10078000EBE6F0E0ABE6B0E004C0ECE6F0E0ACE6AF
:10079000B0E05081483040F481E090E002C0880F22
:1007A000991F4A95E2F710C0242F30E04E3018F41C
:1007B0002850304002C02E50304081E090E002C00E
:1007C000880F991F2A95E2F7809585238C930895C9
:1007D000FC0183E991E091838083CF010E94B30300
:1007E00008952091C8013091C9012817390731F4C3
:1007F00090910B0280910A02981719F42FEF3FEFA6
:100800000FC0E0910B02F0E0E653FE4F2081809193
:100810000B0290E001968F73907080930B0230E092
:10082000C90108952091C8013091C90128173907DD
:1008300019F020E030E00EC080910A0220910B02F6
:1008400090E0805C9F4F821B910960E470E00E9401
:10085000F81D9C01C90108950F931F93DC0159965F
:100860008D919C915A97892B49F481E090E01396E1
:100870009C938E93129720E030E097C00FB7F894C6
:100880005B968C915B975196ED91FC9152975096A7
:100890002C91509781FF8DC08081822B8083599647
:1008A0008D919C915A97059620E001972FEF8F3FED
:1008B0009207D9F75B968C915B9781FF35C031E049
:1008C00040E050E070E010E0832F90E08623972313
:1008D0005196ED91FC91529750962C915097892BFF
:1008E00029F0808120952823208303C08081822BDA
:1008F000808359968D919C915A97212F01972FEFC4
:100900008F3F9207D9F7330F4F5F5F4F4830510544
:10091000D9F65196ED91FC915297908150968C9119
:1009200050978095892333C031E040E050E070E07B
:1009300010E0832F90E0862397235196ED91FC9150
:10094000529750962C915097892B21F08081822BC1
:10095000808304C0808120952823208359968D911F
:100960009C915A97212F01972FEF8F3F9207D9F72C
:10097000330F4F5F5F4F48305105D9F65196ED91D7
:10098000FC915297808150969C915097892B80833F
:100990000FBF59968D919C915A9720E001972FEFA8
:1009A0008F3F9207D9F721E030E0C9011F910F91E5
:1009B0000895808120952823208371CF2091C8013C
:1009C0003091C9012817390749F49FB7F89410925C
:1009D0000A0280910A0280930B029FBF0895209122
:1009E000C8013091C9012817390731F490910B02E1
:1009F00080910A02981719F42FEF3FEF0AC0E09197
:100A00000B02F0E0E653FE4F8081282F332727FDAD
:100A10003095C90108951F93CF93DF93EC01162FF2
:100A2000862F60E00E94AA1A8B8D81FD04C0812F61
:100A300061E00E94E91A1C87212F30E0C9018A5B1E
:100A40009E4FFC0184918D872E5C3E4FF90164918D
:100A5000E62FF0E0EE0FFF1FE85DFE4F85919491C9
:100A60009F878E87DF91CF911F910895FF920F93FB
:100A70001F938C01F62E862F61E00E94AA1A8F2DFB
:100A800061E00E94E91A8F2D90E0FC01EA5BFE4FC5
:100A9000E491D8015096EC9350978E5C9E4FFC01E8
:100AA0006491E62FF0E0EE0FFF1FE25EFE4F8591AE
:100AB000949152969C938E9351971F910F91FF9012
:100AC0000895FF920F931F938C01F62EFC01138261
:100AD000128288EE93E0A0E0B0E084839583A68341
:100AE000B78383E991E091838083148A138A168AFD
:100AF000158A108E178A128E118E838D2170220F07
:100B00008C7F822B838FC801642F0E943605C80119
:100B10006F2D0E940B051F910F91FF900895FC010E
:100B20001382128288EE93E0A0E0B0E08483958384
:100B3000A683B78383EA91E091838083128E118E1E
:100B400014860895FC0183EA91E0918380830895DF
:100B5000DF93CF930F92CDB7DEB7FC016983A081FD
:100B6000B18112962D913C911397BE016F5F7F4F1B
:100B700041E050E0F90109950F90CF91DF91089580
:100B8000DC015996ED91FC915A97309719F420E0C9
:100B900030E018C023893489458956898285938538
:100BA000A485B585281B390B4A0B5B0B2030B0E8B8
:100BB0003B07B0E04B07B0E05B0720F02FEF3FE7CB
:100BC00040E050E0C9010895DC015996ED91FC9197
:100BD0005A97309711F480E008958581811181E062
:100BE0000895FC01818D928D009711F00E944D0DAA
:100BF0000895DF93CF930F92CDB7DEB7FC01818DBF
:100C0000928D009749F0BE016F5F7F4F41E050E049
:100C10000E946E0E019719F02FEF3FEF03C08981FC
:100C2000282F30E0C9010F90CF91DF910895EF9206
:100C3000FF920F931F93DF93CF930F92CDB7DEB741
:100C40007C01DC0159968D919C915A97009719F47B
:100C500000E010E01FC0BE016F5F7F4F41E050E039
:100C60000E946E0E019719F00FEF1FEF13C08981DC
:100C7000082F10E0D7015996ED91FC915A974285C3
:100C80005385648575854150504060407040CF0168
:100C90000E94870CC8010F90CF91DF911F910F9197
:100CA000FF90EF900895CF93DF93EC01E98DFA8DDB
:100CB000309761F013821282CF010E94B3109C0121
:100CC000E98DFA8D82819381892B31F081E090E06A
:100CD0009B838A8320E030E0C901DF91CF910895A2
:100CE000EF92FF920F931F93CF93DF93EC01F62EB9
:100CF000E72E8A011B821A8288EE93E0A0E0B0E022
:100D00008C839D83AE83BF8383EA91E0998388833C
:100D10008DE190E00E94E5009A8F898F009791F015
:100D2000DC018F2D9E2D9C01F9018DE101900D922A
:100D30008150E1F7CE010C96B8014CE050E00E94E2
:100D4000FF01188EDF91CF911F910F91FF90EF90CF
:100D50000895109211021092120210921502109230
:100D6000170282E090E0A0E0B0E080931802909338
:100D70001902A0931A02B0931B0210922F02109234
:100D800039021092380283EB91E0909337028093FE
:100D9000360210923B0208952F923F924F925F923B
:100DA0006F927F928F929F92AF92BF92CF92DF927B
:100DB000EF92FF920F931F93DF93CF93CDB7DEB7E0
:100DC000C754D0400FB6F894DEBF0FBECDBF582E2B
:100DD000492EFB013A01190184A595A5998B888BB1
:100DE00023EB31E03F872E8786A58A8B87A58B8BE7
:100DF00080A991A9A2A9B3A98C8B9D8BAE8BBF8B27
:100E000084A995A9A6A9B7A9888F998FAA8FBB8F06
:100E100080AD91ADA2ADB3AD8C8F9D8FAE8FBF8FE6
:100E200084AD88A3FD9681919191A191B19189A3FF
:100E30009AA3ABA3BCA381919191A191B1918DA3F0
:100E40009EA3AFA3B8A7808191819AA789A71EA668
:100E50001DA63CA72BA718AA7A018E01025F1F4F7F
:100E60003BE2A32EB12CAC0EBD1E4E010894811C9A
:100E7000911C35C0D7018C918F3221F40894E11C6C
:100E8000F11C2DC0422F4E194D3008F04CE0C42EFD
:100E9000DD24C401B701A6010E94FF01F401EC0D9D
:100EA000FD1D1082C5010E94970DC501B801A40166
:100EB00021E00E94E012882351F4E52DF42D1382E5
:100EC000128283EB91E091838083158266C0EC0CE3
:100ED000FD1CC8010E94970DC50158018C01C70176
:100EE0006FE270E00E94F4019C01009719F6E61889
:100EF000F708F101F182E082E52DF42DD801129678
:100F00008D919C9113979383828383EB91E09183DE
:100F1000808314968C911497848315968C911597E1
:100F2000858316962D913D914D915C91199726835D
:100F30003783408751871A962D913D914D915C9151
:100F40001D9722873387448755871E962D913D91A3
:100F50004D915C91519726873787408B518B5296E4
:100F60008C915297828B53962D913D914D915C912E
:100F70005697238B348B458B568B57962D913D91ED
:100F80004D915C915A97278B308F418F528F5B9692
:100F90008D919C915C97948F838F852D942DC95B47
:100FA000DF4F0FB6F894DEBF0FBECDBFCF91DF91FC
:100FB0001F910F91FF90EF90DF90CF90BF90AF9077
:100FC0009F908F907F906F905F904F903F902F9069
:100FD00008959F92AF92BF92CF92DF92EF92FF92CD
:100FE0000F931F93DF93CF93CDB7DEB7C657D04093
:100FF0000FB6F894DEBF0FBECDBFC82E992E8A0162
:10100000D22E43E0A42EB12CAC0EBD1EC501A8010A
:101010009E012F5F3F4F0E94CC06E980FA80E00ED0
:10102000F11EF701808143EB51E02885882309F008
:101030003FC08D819E819BA38AA359A348A38F8122
:101040008CA32DA389859A85AB85BC858EA39FA390
:10105000A8A7B9A78D859E85AF85B8898AA79BA7C4
:10106000ACA7BDA789899A89AB89BC898EA79FA7A0
:10107000A8ABB9AB8D898AAB8E899F89A88DB98DB4
:101080008BAB9CABADABBEAB8A8D9B8DAC8DBD8D60
:101090008FAB98AFA9AFBAAF8E8D9F8D9CAF8BAF42
:1010A0008C2D992DBE01605E7F4F40E051E09FC0C6
:1010B000FE01FF96118210825EAF4DAFFE01EE5B26
:1010C000FF4F10822223A9F02250CE01CD9622306C
:1010D00048F466E372E0A7012D2D0E94E0128823F8
:1010E00081F407C0B501A7012D2D0E94E0128823CD
:1010F00029F48C2D992D0E948F057BC0C5010E947B
:10110000970DF6E0DF2259F0FE01E05BFF4F4081D2
:10111000518162817381CE01CD960E94870C9E0120
:10112000265A3F4FFE01FF9680819181F9019383FA
:10113000828383EB91E091838083FE01EF5BFF4F1D
:101140008081F9018483FE01EE5BFF4F8081F9010C
:101150008583FE01ED5BFF4F80819181A281B38188
:10116000F90186839783A087B187FE01E95BFF4F72
:1011700080819181A281B381F90182879387A487BD
:10118000B587FE01E55BFF4F80819181A281B3812C
:10119000F90186879787A08BB18BFE01E15BFF4F3A
:1011A0008081F901828BFE01E05BFF4F808191819C
:1011B000A281B381F901838B948BA58BB68BFE0141
:1011C000EC5AFF4F80819181A281B381F901878B15
:1011D000908FA18FB28FFE01E85AFF4F80819181DD
:1011E000F901948F838F8C2D992DB901A7010E944D
:1011F00070068C2D992DCA58DF4F0FB6F894DEBFBC
:101200000FBECDBFCF91DF911F910F91FF90EF9057
:10121000DF90CF90BF90AF909F9008950F931F9352
:10122000CF93DF93EC01462F61E00E94730B88237C
:10123000D1F08E01045F1F4FC801BE0141E00E9442
:101240008114882339F4C801BE0140E00E94811452
:10125000882349F0CE018A96B8010E94CD0F8823D9
:1012600019F081E001C080E0DF91CF911F910F91D3
:101270000895FC01673020F086E1858380E00895C1
:10128000262F30E060FD02C0663019F48DB58E7FE8
:1012900002C08DB581608DBD8CB58C7F8CBD4CB589
:1012A00022FD02C090E001C092E036952795822F82
:1012B0008170842B892B8CBD81E00895FF920F9360
:1012C0001F93CF93DF938B010E94081AEB01FF2439
:1012D000FA94FEBC0DB407FEFDCF8EB58F3F11F41E
:1012E00081E008C00E94081A6C1B7D0B6017710713
:1012F00080F380E0DF91CF911F910F91FF900895CF
:10130000FC01848160E00E94E91A0895FC01848157
:1013100061E00E94E91A0895DC016EBDFA0120E047
:1013200030E00DB407FEFDCF80818EBD0DB407FE09
:10133000FDCF81818EBD2E5F3F4F329682E02030FF
:10134000380779F70DB407FEFDCF8FEF8EBD0DB4D2
:1013500007FEFDCF8FEF8EBD0DB407FEFDCF8FEFE3
:101360008EBD0DB407FEFDCF8EB51A968C931A97DD
:101370008F71853011F481E0089581E115968C9389
:101380001597CD010E94860980E00895FF920F9382
:101390001F93CF93DF93EC010E94081A8B01FF2467
:1013A000FA9409C00E94081A601B710B6D527140BB
:1013B00010F08FE00DC0FEBC0DB407FEFDCF8EB562
:1013C0008A878F3F79F38E3F11F481E006C08DE06C
:1013D0008D83CE010E94860980E0DF91CF911F911D
:1013E0000F91FF900895CF93DF93EC018E818823B6
:1013F000D1F08FEF8EBD2F8138854FEF04C00DB433
:1014000007FEFDCF4EBD2F5F3F4FC90101978150B1
:101410009240A8F338872F830DB407FEFDCFCE018D
:101420000E9486091E82DF91CF910895DF92EF928C
:10143000FF920F931F93CF93DF93EC01D62E790188
:101440008A010E94F309CE010E948009CE016CE25C
:1014500071E00E945E098D2D80648EBD0DB407FE83
:10146000FDCF28E130E0D801C701022E04C0B695B7
:10147000A795979587950A94D2F78EBD0DB407FE70
:10148000FDCF285030408FEF283F380761F7DD202F
:1014900011F485E906C088E0D81611F487E801C088
:1014A0008FEF8EBD0DB407FEFDCF90E02FEF2EBD68
:1014B0000DB407FEFDCF8EB587FF02C09150B9F77E
:1014C0008A87DF91CF911F910F91FF90EF90DF906E
:1014D0000895CF92DF92EF92FF920F931F93CF93D5
:1014E000DF93EC017A018B0169014115510561051A
:1014F000710511F482E137C08B85833039F029E022
:10150000EE0CFF1C001F111F2A95D1F7CE0168E1D8
:10151000A80197010E94160A882311F084E023C0D5
:10152000CE016EEFA6010E948C098823E9F0CE015E
:1015300068E572E00E945E09882311F485E113C01A
:10154000CE016DE020E030E040E050E00E94160A5D
:10155000882341F48FEF8EBD0DB407FEFDCF8EB50D
:10156000882379F084E18D83CE010E94860980E092
:10157000DF91CF911F910F91FF90EF90DF90CF906F
:101580000895CE010E94860981E0F2CF8F929F924A
:10159000AF92BF92CF92DF92EF92FF920F931F9381
:1015A000CF93DF93EC015A016B014901011511053D
:1015B00009F47BC0C801820F931F8150924008F04C
:1015C0006FC08E81882371F088819981AA81BB8147
:1015D000481759076A077B0729F48F819885881671
:1015E000990618F5A882B982CA82DB828B8583307E
:1015F00039F069E0AA0CBB1CCC1CDD1C6A95D1F744
:10160000CE0161E1A60195010E94160A882319F016
:1016100083E08D8345C0CE010E94C609882309F46A
:101620003FC018861F8281E08E838FEF8EBD8F8131
:1016300098852FEF05C00DB407FEFDCF2EBD019696
:1016400088159905C0F398878F83D801119720E0FA
:1016500030E09FEF0BC00DB407FEFDCF8EB5F70154
:10166000E20FF31F80839EBD2F5F3F4F2A173B077A
:1016700090F30DB407FEFDCF8EB5AE0DBF1D8C935C
:101680002F813885200F311F38872F838985882344
:1016900019F02050324048F0CE010E94F30905C0F5
:1016A000CE010E94860980E001C081E0DF91CF91E8
:1016B0001F910F91FF90EF90DF90CF90BF90AF9070
:1016C0009F908F900895EF92FF920F931F9379014F
:1016D00020E030E000E012E00E94C60A1F910F9166
:1016E000FF90EF900895BF92CF92DF92EF92FF921A
:1016F0000F931F93CF93DF93EC01B62E1B861986B1
:101700001E821D824C830E94081A6B018C8161E04D
:101710000E94AA1ACE010E9486098CE060E00E9415
:10172000AA1A8BE061E00E94AA1A8DE061E00E9493
:10173000AA1A8AE061E00E94AA1A8AE061E00E9487
:10174000E91A83E58CBD8DB58E7F8DBD80E09FEF5E
:101750009EBD0DB407FEFDCF8F5F8A30C9F7CE0165
:101760000E94800909C00E94081A6C197D09615DF8
:10177000774010F081E05EC0CE0160E020E030E014
:1017800040E050E00E94160A182F8A87813059F7EE
:10179000CE0168E02AEA31E040E050E00E94160AFB
:1017A00082FF02C01B8711C080E02FEF2EBD0DB459
:1017B00007FEFDCF9EB58F5F8430C1F79A879A3AB6
:1017C00011F082E037C082E08B878B85823021F078
:1017D000EE24FF2487010FC0E12CF12C012DF0E451
:1017E0001F2F09C00E94081A6C197D09615D77409E
:1017F00010F088E01FC0CE0167E320E030E040E059
:1018000050E00E94160ACE0169E2A80197010E94E9
:10181000160A8A87882331F78B85823031F5CE010D
:101820006AE320E030E040E050E00E94160A88239E
:1018300039F086E08D83CE010E94860980E01CC0CD
:101840008FEF8EBD0DB407FEFDCF8EB5807C803C42
:1018500011F483E08B8780E09FEF9EBD0DB407FEFF
:10186000FDCF2EB58F5F8330C1F7CE010E94860970
:10187000CE016B2D0E943909DF91CF911F910F91FD
:10188000FF90EF90DF90CF90BF900895CF93DF93BC
:10189000EC01DB0180E090E020E2FD01E80FF91FA0
:1018A000208301968B309105C1F757E040E021C0BD
:1018B0002E3219F084E091E007C05A3019F15AE055
:1018C00048E017C03217F1F0FC0101963491332340
:1018D000C9F75417B8F02132A8F02F3798F4822FA7
:1018E00081568A3108F42052FD01E40FF11D208356
:1018F0004F5F29912223E1F690E08C91803219F01C
:1019000091E001C090E0892FDF91CF9108956F920F
:101910007F928F929F92AF92BF92CF92DF92EF927F
:10192000FF920F931F93CF93DF93EC017A018B010A
:101930002D81222309F480C08B899C89AD89BE89C1
:1019400084179507A607B70708F476C085C0E11489
:10195000F1040105110549F41E821F8218861986BB
:101960001A861B861C861D8665C02A853B854C858C
:101970005D85EB8DFC8D858590E00996215030408A
:101980004040504039014A01082E04C09694879483
:10199000779467940A94D2F72F5F3F4F4F4F5F4F72
:1019A0000894E108F108010911095701680104C010
:1019B000D694C794B794A7948A95D2F70894E11C5B
:1019C000F11C011D111DA614B704C804D90428F088
:1019D000211531054105510549F48F89988DA98D4F
:1019E000BA8D8E839F83A887B98716C0A618B708BB
:1019F000C808D90811C04E815F81688579858B8DB3
:101A00009C8D94010E9462160894A108B108C10837
:101A1000D108882331F410C086E0882E912C8C0EDA
:101A20009D1EA114B104C104D10429F7EA86FB86E6
:101A30000C871D8781E001C080E0DF91CF911F916D
:101A40000F91FF90EF90DF90CF90BF90AF909F905D
:101A50008F907F906F900895223009F078CFE6CF75
:101A6000CF93DF93EC01462F6E857F858889998916
:101A70000E944614882319F420E030E00AC08A89C5
:101A8000282F30E095E0220F331F9A95E1F7295A6D
:101A90003D4FC901DF91CF9108950F931F93CF93CD
:101AA000DF938C01FC0185818823D9F1848187FF34
:101AB00035C0C80161E00E94300DEC01009789F14A
:101AC000F8018581823040F483899489A589B6899B
:101AD0008C8F9D8FAE8FBF8FF8018789908D9B8FE4
:101AE0008A8F8789908DA18DB28DCD01AA27BB27C2
:101AF0009D8B8C8BE0915502F0915602309751F0FE
:101B0000BE016A5E7F4FCE0148960995888D998DFA
:101B10009B8B8A8BF80184818F7784830E94E713E3
:101B200001C080E0DF91CF911F910F910895CF9375
:101B3000DF93EC010E944D0D882311F01D8281E09E
:101B4000DF91CF9108956F927F928F929F92AF9283
:101B5000BF92CF92DF92EF92FF920F931F93DF938A
:101B6000CF9300D000D0CDB7DEB77C015A016B0116
:101B7000DC0115968C911597813009F08FC0149671
:101B80008C9181FF8BC09EC00097A105B10511F417
:101B900081E085C0F7016284738484849584C701E1
:101BA000B601A5010E94870C882309F477C0D701EC
:101BB0005B968D919C915C97A114B104C104D104F2
:101BC00089F457964D915D916D917C915A970E9441
:101BD000D516882309F462C0F701178A108E118E7A
:101BE000128E3DC0D70116964D915D916D917C91FD
:101BF00019979E012F5F3F4F0E946216882309F4B8
:101C00004DC0D7015B96ED91FC915C9749815A815B
:101C10006B817C818789803129F088EF9FEFAFEF5E
:101C2000BFE004C088EF9FEFA0E0B0E0481759077D
:101C30006A077B07A0F4CF010E94D516882371F1B3
:101C4000F7014681578160857185838D948D0FEFF3
:101C50001FEF2FEF3FE00E94C6158823F9F0D70150
:101C60005396AD92BD92CD92DC92569714968C917C
:101C70001497806814968C93C7010E944D0D882399
:101C800069F0B601A5016A147B048C049D0410F46C
:101C9000B401A301C7010E94870C01C080E00F902E
:101CA0000F900F900F90CF91DF911F910F91FF90A8
:101CB000EF90DF90CF90BF90AF909F908F907F90EC
:101CC0006F900895F70183899489A589B68984174F
:101CD0009507A607B70708F057CFE0CF2F923F929E
:101CE0004F925F926F927F928F929F92AF92BF922C
:101CF000CF92DF92EF92FF920F931F93CF93DF93D8
:101D0000EC012A018D81882309F4C6C08C8180FFF3
:101D1000C3C0D8C025014E185F084B0176E0272EBE
:101D2000312C2C0E3D1E3201B1C02A853B854C85DD
:101D30005D856FEFA62E61E0B62EA222B3228D81C3
:101D400079018A0199E016950795F794E7949A9599
:101D5000D1F7EB8DFC8D823049F4428D538D648D2B
:101D6000758D4E0D5F1D601F711F3FC0D480DA94CA
:101D7000DE20A114B104D9F4DD20C9F42115310508
:101D80004105510549F48F89988DA98DBA8D8E83AF
:101D90009F83A887B9870BC04E815F81688579854D
:101DA000CF0191010E946216882309F475C0EB8D62
:101DB000FC8D4E815F81688579854250504060403E
:101DC0007040058404C0440F551F661F771F0A9496
:101DD000D2F786859785A089B189480F591F6A1F58
:101DE0007B1F4D0D511D611D711D80E092E08A1910
:101DF0009B0963018615970508F46C018C8186FDAB
:101E000006C080E0C81682E0D80609F073C0809151
:101E10008B0190918C01A0918D01B0918E0148179A
:101E200059076A077B0709F465C0809157049091B0
:101E300058049501860174010E94C60A882361F145
:101E40008C0C9D1C12C09501295A3D4FA9014C0DC7
:101E50005D1DD401F90102C081918D93E417F5074E
:101E6000D9F7E21BF30B8E0E9F1E960140E050E067
:101E70008A859B85AC85BD85820F931FA41FB51FE6
:101E80008A879B87AC87BD876C187D0861147104B5
:101E900009F04BCFA20102C04FEF5FEFCA01DF9103
:101EA000CF911F910F91FF90EF90DF90CF90BF9057
:101EB000AF909F908F907F906F905F904F903F90EA
:101EC0002F900895AB88BC88CD88DE88EA84FB8497
:101ED0000C851D859A0140E050E0D601C5018E19A0
:101EE0009F09A00BB10B82179307A407B50708F44D
:101EF00011CF13CFCB01BA0140E00E9446148823D2
:101F000009F0A1CFC9CFCF92DF92EF92FF920F934A
:101F10001F93DF93CF930F92CDB7DEB76C01FC0117
:101F20008581823070F0E284F38404851585C601D2
:101F3000BE016F5F7F4F41E050E00E946E0E01973F
:101F400069F020E030E0C9010F90CF91DF911F913F
:101F50000F91FF90EF90DF90CF900895F60182856A
:101F60009385A485B5854F96A11DB11D8287938762
:101F7000A487B587F5E016950795F794E794FA9549
:101F8000D1F78E2D8F70282F30E0E5E0220F331F20
:101F9000EA95E1F7295A3D4FD6CF0F931F93CF9380
:101FA000DF93EC018B018D81882309F041C0FB0197
:101FB00087898031B1F482E08D831F8A188E198E53
:101FC0001A8E808D918DA0E0B0E045E0880F991FBA
:101FD000AA1FBB1F4A95D1F78B8B9C8BAD8BBE8BF9
:101FE00015C0803229F583E08D83FB01428D538D2E
:101FF000648D758D4F8B588F698F7A8F9E012D5E02
:102000003F4FC8010E942E17882391F01C8F0B8F21
:1020100081E08C831E821F82188619861A861B8691
:102020001C861D861E861F86188A198A1A8A01C078
:1020300080E0DF91CF911F910F9108951F93CF936F
:10204000DF93EC01142FE62FF0E075E0EE0FFF1F99
:102050007A95E1F7E95AFD4F8385817121F0842F4C
:10206000827409F054C06A8B80918B0190918C012D
:10207000A0918D01B0918E018E879F87A88BB98B1F
:1020800084899589A0E0B0E0BC0155274427828D62
:10209000938DA0E0B0E0482B592B6A2B7B2B4F8B04
:1020A000588F698F7A8F838590E088719070009740
:1020B00051F4848D958DA68DB78D8B8B9C8BAD8BBC
:1020C000BE8B81E00CC0409711F59E012D5E3F4F05
:1020D0008B8D9C8D0E942E178823C9F084E08D8300
:1020E000812F8F708C831E821F82188619861A8614
:1020F0001B861C861D8616FD02C081E009C0CE012C
:1021000040E050E060E070E00E94A30D01C080E07C
:10211000DF91CF911F910895CF93DF93EC019C0144
:102120002A5F3F4F8B8D9C8D41E050E060E070E076
:102130000E949D178823A1F08F89988DA98DBA8D53
:102140000097A105B10559F48E819F81A885B985B5
:102150008F8B988FA98FBA8F8C8180688C8381E058
:10216000DF91CF9108952F923F924F925F927F928D
:102170008F929F92AF92BF92CF92DF92EF92FF9297
:102180000F931F93DF93CF9300D000D000D0CDB733
:10219000DEB76C01162F072F5E834D83DC01159689
:1021A0008C911597813009F070C114968C9181FF44
:1021B0006CC18EC1F601438954896589768982850F
:1021C0009385A485B58584179507A607B70731F0D1
:1021D000C6010E94870C882309F457C1812F902FD4
:1021E0009C0129012D803E8017C1D6015B96ED919F
:1021F000FC915C97DA01C90119E0B695A79597950E
:1022000087951A95D1F774807A9478227FEF872E7C
:1022100071E0972E82229322772009F04EC081141C
:10222000910409F04AC0D60116964D915D916D91C9
:102230007C911997411551056105710581F45796F7
:102240008D919D910D90BC91A02D0097A105B10598
:1022500049F1F60186839783A087B1872EC0CF010D
:102260009E012F5F3F4F0E946216882309F414C11C
:1022700029813A814B815C81D6015B96ED91FC917D
:102280005C978789803129F088EF9FEFAFEFBFE03F
:1022900004C088EF9FEFA0E0B0E0281739074A0795
:1022A0005B0730F0C6010E948C10882331F4EDC02A
:1022B000F601268337834087518780E092E08819B2
:1022C000990951018215930508F45C01D6015B96CA
:1022D000ED91FC915C971696ED90FD900D911C91FF
:1022E00019978EEF9FEFAFEFBFEFE80EF91E0A1FB1
:1022F0001B1F058404C0EE0CFF1C001F111F0A9455
:10230000D2F786859785A089B189E80EF91E0A1F44
:102310001B1FE70CF11C011D111D90E0A91692E096
:10232000B90651F580918B0190918C01A0918D019E
:10233000B0918E018E159F05A007B10761F48FEF54
:102340009FEFAFEFBFEF80938B0190938C01A09331
:102350008D01B0938E018091570490915804B8017B
:10236000A70192010E94690A882309F48EC0A0E0A7
:10237000B2E04A0E5B1E3EC08114910409F5F601DD
:10238000228533854485558583899489A589B689B5
:10239000281739074A075B0798F00E94E71388233C
:1023A00009F473C0E0928B01F0928C0100938D01CF
:1023B00010938E018091590481608093590408C064
:1023C000C801B70141E00E944614882309F45DC0AA
:1023D0009401295A3D4FA9014A0D5B1DD201F90113
:1023E00002C08D918193E417F507D9F7E21BF30B37
:1023F0004E0E5F1E2A183B08950140E050E0F601A2
:1024000082859385A485B585820F931FA41FB51F70
:1024100082879387A487B587D6011A962D913D911F
:102420004D915C911D972114310409F0DECE539635
:102430008D919D910D90BC91A02D82179307A407BB
:10244000B50748F4F601238B348B458B568B84817A
:102450008068848311C08091550290915602892B27
:1024600059F08D819E81892B39F0D60114968C917B
:102470001497806814968C93F601848183FF0EC0B4
:10248000C6010E944D0D882349F481E090E0D601F9
:1024900013969C938E9312971E821D828D819E812E
:1024A00026960FB6F894DEBF0FBECDBFCF91DF9159
:1024B0001F910F91FF90EF90DF90CF90BF90AF9062
:1024C0009F908F907F905F904F903F902F900895B6
:1024D00082FD70CE83CEDF93CF930F92CDB7DEB760
:1024E0006983BE016F5F7F4F41E050E00E94B310EF
:1024F0000F90CF91DF910895DF92EF92FF920F93AB
:102500001F93CF93DF93EC010E948C10882309F472
:102510004EC0EB8DFC8DEE80FF80088519858EEF17
:102520009FEFAFEFBFEFE80EF91E0A1F1B1F0584D8
:1025300004C0EE0CFF1C001F111F0A94D2F7868501
:102540009785A089B189E80EF91E0A1F1B1FD48048
:102550000894E108F108010911090BC0C801B7018D
:102560006D0D711D811D911D0E9422148823F9F0AB
:10257000DA94DD2099F7EB8DFC8D20E032E040E02D
:1025800050E0058404C0220F331F441F551F0A94D6
:10259000D2F78B899C89AD89BE89820F931FA41FB6
:1025A000B51F8B8B9C8BAD8BBE8B81E001C080E017
:1025B000DF91CF911F910F91FF90EF90DF900895E1
:1025C0006F927F928F929F92AF92BF92CF92DF9243
:1025D000EF92FF920F931F93DF93CF93CDB7DEB7A8
:1025E0002B970FB6F894DEBF0FBECDBF5C016B0119
:1025F000822EDC0115968C91882309F0D2C0CA0185
:102600008E010F5F1F4FB8010E94460C882309F40A
:10261000C8C0F601838D948DD5015C969C938E93F2
:102620005B971682178210861186D6011A961D9224
:102630001D921D921C921D979924380141C0C6011C
:102640000E94830FFC01009709F4ABC085E016954A
:102650000795F794E7948A95D1F71E2D1F70808116
:10266000882311F0853ED1F4992091F4D50152963A
:102670001C93529720918B0130918C0140918D01D8
:1026800050918E011E962D933D934D935C935197DF
:102690008081882399F49924939421C0C301BF01B8
:1026A0004BE050E00E94E701009751F4882D8073C1
:1026B000803309F476C0C501612F6FC099249394CB
:1026C000F601E284F3840485158583899489A589BC
:1026D000B689E816F9060A071B0708F4B0CF882D5B
:1026E0008271823109F05DC0992041F0C50161E03D
:1026F0000E94300D8C01009789F453C0D6011596C5
:102700008C91823009F44DC0C6010E947C1288234E
:1027100009F447C0F501128A07E512E080E2D8010A
:102720001D928A95E9F7D801FE0131968BE0019060
:102730000D928150E1F7E0915502F09156023097E9
:1027400039F0B801625F7F4FC8014096099509C012
:1027500081E298E2F801918B808B80E098E0978786
:102760008687D80150968D919C91519753969C9352
:102770008E93529759969C938E9358971E968D914F
:102780009C911F9757969C938E9356970E94E713A0
:10279000882339F0C501F5016289482D0E941E1079
:1027A00001C080E02B960FB6F894DEBF0FBECDBF00
:1027B000CF91DF911F910F91FF90EF90DF90CF901D
:1027C000BF90AF909F908F907F906F900895809171
:1027D0005904882399F140918B0150918C016091AB
:1027E0008D0170918E01809157049091580427E5D6
:1027F00032E00E94690A882319F140915A045091ED
:102800005B0460915C0470915D04411551056105A4
:10281000710591F0809157049091580427E532E0BA
:102820000E94690A882361F010925A0410925B0496
:1028300010925C0410925D041092590481E0089596
:1028400080E00895EF92FF920F931F937B018C011C
:102850000E94E7138823A9F0E7E5F2E0119284E0F3
:10286000E735F807D9F7E0928B01F0928C010093DD
:102870008D0110938E0180915904816080935904D9
:1028800081E01F910F91FF90EF900895DF92EF92FA
:10289000FF920F931F937B018C01D42E80918B01AB
:1028A00090918C01A0918D01B0918E018E159F05A4
:1028B000A007B107C1F00E94E7138823D9F08091E7
:1028C000570490915804B801A70127E532E00E940F
:1028D000630B882379F0E0928B01F0928C010093D6
:1028E0008D0110938E01809159048D298093590494
:1028F00081E001C080E01F910F91FF90EF90DF9089
:1029000008958F929F92AF92BF92CF92DF92EF92F3
:10291000FF920F931F93CF93DF936C01142F70934B
:10292000580460935704442321F4882499245401C3
:1029300040C0453008F01CC160E070E080E090E0ED
:1029400040E00E944614882309F412C1C12FD0E050
:102950002197FE0174E0EE0FFF1F7A95E1F7E95A27
:10296000FD4FE254FE4F8081EE5BF14090E08F77A7
:102970009070892B09F0FCC0E653FE4F8081918155
:10298000A281B38184369105A105B10508F4F0C098
:1029900064E0CC0FDD1F6A95E1F7C35EDB4F8880F2
:1029A0009980AA80BB8081149104A104B10409F428
:1029B000DFC0C501B40140E00E944614882309F439
:1029C000D7C080916202909163028050924009F0DA
:1029D000CFC020916702222309F4CAC0809165020A
:1029E00090916602892B09F4C3C080916402882308
:1029F00009F4BEC0F601228B80916402848315869F
:102A000061E070E007C04F5FF601458741504830F4
:102A100008F0AEC0F6014585848190E09B01042E4C
:102A200002C0220F331F0A94E2F78217930759F767
:102A300020916D0230916E022115310519F040E0B0
:102A400050E008C020917B0230917C0240917D02D1
:102A500050917E02F6012583368347835087E090AC
:102A60006502F090660200E010E0E80CF91C0A1D17
:102A70001B1DE38AF48A058B168B80916802909166
:102A80006902918F808F6091670270E080E090E032
:102A90000E94D91D6E0D7F1D801F911FF601628F50
:102AA000738F848F958F209168023091690255E071
:102AB000220F331F5A95E1F721503E4F232F332722
:102AC000269540E050E0260F371F481F591F2687E4
:102AD0003787408B518B80916A0290916B020097EF
:102AE00019F0A0E0B0E008C08091770290917802E0
:102AF000A0917902B0917A0285017401E21AF30A79
:102B0000040B150BA8019701280F391F4A1F5B1FE3
:102B1000F601058404C056954795379527950A9484
:102B2000D2F72187328743875487253FFFE03F074D
:102B3000F0E04F07F0E05F0710F48CE006C0255F7F
:102B40003F4F4040504028F480E1F601878B81E000
:102B500010C08091830290918402A0918502B0916F
:102B60008602F601828F938FA48FB58F80E2EECF1D
:102B700080E0DF91CF911F910F91FF90EF90DF9058
:102B8000CF90BF90AF909F908F9008954F925F929B
:102B90006F927F928F929F92AF92BF92CF92DF926D
:102BA000EF92FF920F931F93CF93DF93EC016A0193
:102BB0007B0128013901423051056105710508F496
:102BC0006FC089859A85AB85BC850196A11DB11D15
:102BD00084179507A607B70708F462C02B893C89BC
:102BE0004D895E898F89803129F499278F2D7E2D1B
:102BF0006D2D09C0C701B60117E0969587957795A9
:102C000067951A95D1F74B015C01820E931EA41EA5
:102C1000B51E80918B0190918C01A0918D01B09196
:102C20008E0188169906AA06BB0639F0C501B401C3
:102C300040E00E944614882399F18F89803149F43D
:102C4000F601F070EE0FFF1FE95AFD4F51824082EE
:102C50000DC0F601EF77F070EE0FFF1FEE0FFF1FB4
:102C6000E95AFD4F408251826282738280915904F9
:102C70008160809359048A89823080F08D819E81A1
:102C8000AF81B885880E991EAA1EBB1E80925A0479
:102C900090925B04A0925C04B0925D0481E001C05C
:102CA00080E0DF91CF911F910F91FF90EF90DF9027
:102CB000CF90BF90AF909F908F907F906F905F90DC
:102CC0004F900895CF92DF92EF92FF920F931F9350
:102CD000CF93DF93EC017A018B01690189859A8595
:102CE000AB85BC850196A11DB11D84179507A6076C
:102CF000B70708F450C02B893C894D895E898F89BC
:102D0000803129F49927812F702F6F2D09C0C801B8
:102D1000B701E7E09695879577956795EA95D1F79E
:102D2000260F371F481F591F80918B0190918C01EE
:102D3000A0918D01B0918E01281739074A075B07D2
:102D400039F0CA01B90140E00E944614882319F104
:102D50008F89803159F4F701F070EE0FFF1FE95AA7
:102D6000FD4F80819181A0E0B0E00EC0F701EF77C8
:102D7000F070EE0FFF1FEE0FFF1FE95AFD4F80812D
:102D80009181A281B381BF70F60180839183A28378
:102D9000B38381E001C080E0DF91CF911F910F915B
:102DA000FF90EF90DF90CF900895AF92BF92CF92B7
:102DB000DF92EF92FF920F931F93DF93CF9300D098
:102DC00000D0CDB7DEB76C017A018B0182E090E0D4
:102DD000A0E0B0E0F60180839183A283B3835E011B
:102DE0000894A11CB11CC601B801A70195010E945D
:102DF0006216882319F1C601B801A70100E010E0AE
:102E000020E030E00E94C6158823C1F0E980FA80F6
:102E10000B811C81F6018789803129F088EF9FEFB3
:102E2000AFEFBFE004C088EF9FEFA0E0B0E0E8168E
:102E3000F9060A071B07B8F281E001C080E00F9095
:102E40000F900F900F90CF91DF911F910F91FF90F6
:102E5000EF90DF90CF90BF90AF9008954F925F9228
:102E60006F927F928F929F92AF92BF92CF92DF929A
:102E7000EF92FF920F931F93DF93CF9300D000D078
:102E8000CDB7DEB76C0149835A836B837C833901EC
:102E9000EE24FF2487012E010894411C511C812C33
:102EA000A2E09A2EA12CB12C49815A816B817C81A0
:102EB000C60192010E946216882351F1D501C40116
:102EC000F601058404C0880F991FAA1FBB1F0A942E
:102ED000D2F7E80EF91E0A1F1B1F29813A814B8188
:102EE0005C818789803129F088EF9FEFAFEFBFE0E9
:102EF00004C088EF9FEFA0E0B0E0281739074A0729
:102F00005B0790F2F301E082F1820283138381E098
:102F10000F900F900F900F90CF91DF911F910F9115
:102F2000FF90EF90DF90CF90BF90AF909F908F90E9
:102F30007F906F905F904F9008952F923F924F92A5
:102F40005F926F927F928F929F92AF92BF92CF9239
:102F5000DF92EF92FF920F931F93DF93CF93CDB742
:102F6000DEB72F970FB6F894DEBF0FBECDBF1C01A2
:102F70004A875B876C877D873F872E87D9010D91B4
:102F80001D912D913C91011511052105310549F047
:102F9000480159010894811C911CA11CB11C19867F
:102FA00010C0FC0180809180A280B38019868A8540
:102FB0009B85AC85BD850197A105B10511F491E014
:102FC0009987D10119968D919D910D90BC91A02D5D
:102FD0000196A11DB11D8D839E83AF83B8877501B6
:102FE00064014424552432018E010F5F1F4FF1010B
:102FF00081859285A385B485481659066A067B06A5
:1030000008F090C08D819E81AF81B8858C159D059B
:10301000AE05BF0550F482E0882E912CA12CB12C76
:10302000B2E0CB2ED12CE12CF12CC101B701A601CD
:1030300098010E946216882309F474C089819A81DC
:10304000AB81BC81A70196012F5F3F4F4F4F5F4F70
:103050000097A105B10519F049015A010DC02819C1
:1030600039094A095B098A859B85AC85BD85281786
:1030700039074A075B0759F00894411C511C611C31
:10308000711C0894C11CD11CE11CF11CB0CFC10102
:10309000A601B7010FEF1FEF2FEF3FE00E94C6150B
:1030A000882399F43FC0260137010894410851084C
:1030B00061087108C101B301A201970186010E9454
:1030C000C615882379F1730162018C149D04AE0446
:1030D000BF0448F3AE85BF854D915D916D917C91A4
:1030E000411551056105710539F0C1019501840152
:1030F0000E94C6158823B1F0EE85FF8580829182FB
:10310000A282B382F985FF2359F00894811C911C97
:10311000A11CB11CD1018D929D92AD92BC921397CE
:1031200081E001C080E02F960FB6F894DEBF0FBE9D
:10313000CDBFCF91DF911F910F91FF90EF90DF9066
:10314000CF90BF90AF909F908F907F906F905F9047
:103150004F903F902F9008958130910579F46F5FE3
:103160007F4FC9F48EE594E062E043E020E00E94E6
:1031700061058AE794E00E948F050895892B59F430
:103180006F5F7F4F41F48AE794E00E94A2058EE5CD
:1031900094E00E94E803089580E090E06FEF7FEFF5
:1031A0000E94AC18089581E090E06FEF7FEF0E94DD
:1031B000AC180895DF93CF93CDB7DEB76B970FB6FA
:1031C000F894DEBF0FBECDBF8AE295E040E855E23D
:1031D00060E070E00E94C71B8EE594E040E855E295
:1031E00060E070E00E94F6028EE594E062E071E03B
:1031F0000E94C61D8EE594E064E371E00E94C61D46
:1032000083E061E00E94AA1A8CE092E06AE00E94EA
:103210000E09882329F48AE295E064E471E03EC057
:10322000CE0101966CE072E048E651E023E10E9495
:10323000E9078B819C8190937D0480937C048D8130
:103240009E81AF81B88580937E0490937F04A09384
:103250008004B093810489859A85AB85BC85809371
:10326000820490938304A0938404B0938504A6E819
:10327000B4E0FE013D968DE001900D928150E1F7A2
:103280008A8D9B8D9093940480939304CE01019634
:103290000E94A2058AE295E064E771E00E94C61DE3
:1032A00068EB7BE080E090E00E94161A6B960FB608
:1032B000F894DEBF0FBECDBFCF91DF910895CF92BE
:1032C000DF92EF92FF921F930E94081A6B017C011C
:1032D00046C08EE594E00E94F103182F682F7727EF
:1032E00067FD70958AE295E00E94B81C8AE794E039
:1032F0000E94E405882311F18AE794E0612F0E947F
:10330000A8058AE794E062E871E00E94C31D0E946C
:10331000081A209195043091960440919704509199
:103320009804621B730B840B950B695E734080409D
:10333000904020F08AE794E00E94F1050E94081A6C
:1033400060939504709396048093970490939804E7
:103350008EE594E00E941204892B09F0BACF0E94F6
:10336000081A6C197D098E099F096436710581055B
:10337000910570F31F91FF90EF90DF90CF9008952B
:103380001F920F920FB60F9211242F933F938F939A
:103390009F93AF93BF9380919D0490919E04A091C1
:1033A0009F04B091A0043091A1040196A11DB11D0C
:1033B000232F2D5F2D3720F02D570196A11DB11D14
:1033C0002093A10480939D0490939E04A0939F0456
:1033D000B093A0048091990490919A04A0919B04C9
:1033E000B0919C040196A11DB11D80939904909306
:1033F0009A04A0939B04B0939C04BF91AF919F91BA
:103400008F913F912F910F900FBE0F901F901895A5
:103410008FB7F89420919D0430919E0440919F04B1
:103420005091A0048FBFB901CA0108959B01AC015E
:103430007FB7F8948091990490919A04A0919B048D
:10344000B0919C0466B5A89B05C06F3F19F001962A
:10345000A11DB11D7FBFBA2FA92F982F8827860FD6
:10346000911DA11DB11D62E0880F991FAA1FBB1FEE
:103470006A95D1F7BC012DC0FFB7F89480919904EB
:1034800090919A04A0919B04B0919C04E6B5A89BEE
:1034900005C0EF3F19F00196A11DB11DFFBFBA2F66
:1034A000A92F982F88278E0F911DA11DB11DE2E035
:1034B000880F991FAA1FBB1FEA95D1F7861B970B90
:1034C000885E9340C8F221503040404050406851DF
:1034D0007C4F211531054105510571F60895789409
:1034E00084B5826084BD84B5816084BD85B5826009
:1034F00085BD85B5816085BDEEE6F0E080818160A7
:103500008083E1E8F0E010828081826080838081A6
:1035100081608083E0E8F0E0808181608083E1EB7E
:10352000F0E0808184608083E0EBF0E08081816066
:103530008083EAE7F0E0808184608083808182601C
:103540008083808181608083808180688083109205
:10355000C1000895CF93DF93482F50E0CA018A5BE2
:103560009E4FFC0134914E5C5E4FFA01849188239A
:1035700069F190E0880F991FFC01EC5EFE4FA59168
:10358000B491FC01E25EFE4FC591D491662351F4E3
:103590002FB7F8948C91932F909589238C938881E1
:1035A00089230BC0623061F42FB7F8948C91932F6C
:1035B000909589238C938881832B88832FBF06C0A5
:1035C0009FB7F8948C91832B8C939FBFDF91CF9101
:1035D0000895482F50E0CA01865A9E4FFC0124915D
:1035E000CA018A5B9E4FFC0194914E5C5E4FFA01CA
:1035F0003491332309F440C0222351F1233071F078
:10360000243028F42130A1F0223011F514C02630E6
:10361000B1F02730C1F02430D9F404C0809180008B
:103620008F7703C0809180008F7D8093800010C0D1
:1036300084B58F7702C084B58F7D84BD09C0809129
:10364000B0008F7703C08091B0008F7D8093B00071
:10365000E32FF0E0EE0FFF1FE25EFE4FA591B49165
:103660002FB7F894662321F48C919095892302C09A
:103670008C91892B8C932FBF089508951F920F92E0
:103680000FB60F9211242F933F934F938F939F93D5
:10369000EF93FF938091C00082FD1DC04091C60052
:1036A0002091E2043091E3042F5F3F4F2F7330707D
:1036B0008091E4049091E5042817390771F0E091B6
:1036C000E204F091E304EE55FB4F40833093E304B2
:1036D0002093E20402C08091C600FF91EF919F9178
:1036E0008F914F913F912F910F900FBE0F901F9090
:1036F0001895E0913605F0913705E05CFF4F819118
:10370000919120813181821B930B8F739070892B53
:1037100011F00E943D1B08951F920F920FB60F9259
:1037200011242F933F938F939F93EF93FF932091B7
:1037300026053091270580912805909129052817A5
:10374000390731F48091C1008F7D8093C10014C08E
:10375000E0912805F0912905EA51FB4F20818091E5
:1037600028059091290501968F73907090932905F3
:10377000809328052093C600FF91EF919F918F9130
:103780003F912F910F900FBE0F901F901895AF9201
:10379000BF92DF92EF92FF920F931F93CF93DF932D
:1037A000EC017A018B01DD24403081EE580780E086
:1037B000680780E0780711F0DD24D39491E0A92E0A
:1037C000B12CEC89FD89DD2069F0C50108A002C09B
:1037D000880F991F0A94E2F7808360E079E08DE317
:1037E00090E005C0108260E874E88EE190E0A801E6
:1037F00097010E940B1E215030404040504056958A
:1038000047953795279580E12030380720F0DD2057
:1038100011F0DD24D6CFE889F9893083EA89FB8964
:10382000208319A2EE89FF89408121E030E0C9019F
:103830000C8C02C0880F991F0A94E2F7482B408332
:10384000EE89FF894081C9010D8C02C0880F991F44
:103850000A94E2F7482B4083EE89FF894081C90131
:103860000E8C02C0880F991F0A94E2F7482B408300
:10387000EE89FF8980810F8C02C0220F331F0A94CA
:10388000E2F7209528232083DF91CF911F910F919C
:10389000FF90EF90DF90BF90AF900895DC011C96F1
:1038A000ED91FC911D97E05CFF4F2191319180815A
:1038B0009181281B390B2F733070C9010895DC01E9
:1038C0001C96ED91FC911D97E05CFF4F20813181AA
:1038D000E054F040DF01AE5BBF4F8D919C9111979A
:1038E0002817390719F42FEF3FEF07C08D919C91EE
:1038F000E80FF91F8081282F30E0C9010895DC010D
:103900001C96ED91FC911D97E05CFF4F2081318169
:10391000E054F040DF01AE5BBF4F8D919C91119759
:103920002817390719F42FEF3FEF10C08D919C91A4
:103930001197E80FF91F20818D919C9111970196A5
:103940008F73907011969C938E9330E0C901089507
:10395000DC0191968C919197882339F05496ED91E2
:10396000FC915597808186FFF9CF91961C9208951E
:10397000CF93DF93EC01EE85FF85E05CFF4F208164
:103980003181E054F0402F5F3F4F2F733070DF01E3
:10399000AE5BBF4F8D919C91119728173907D1F3DA
:1039A000E05CFF4F80819181E054F040E80FF91F07
:1039B0006083EE85FF85E05CFF4F31832083EE89D5
:1039C000FF89208181E090E00F8C02C0880F991F51
:1039D0000A94E2F7282B208381E089A3EC89FD89F2
:1039E00080818064808381E090E0DF91CF910895B1
:1039F00010922D0510922C0588EE93E0A0E0B0E027
:103A000080932E0590932F05A0933005B093310538
:103A10008BEB91E090932B0580932A0582EA94E04A
:103A2000909337058093360586EE94E090933905A0
:103A30008093380585EC90E090933B0580933A05A0
:103A400084EC90E090933D0580933C0580EC90E001
:103A500090933F0580933E0581EC90E09093410563
:103A60008093400582EC90E090934305809342055B
:103A700086EC90E0909345058093440584E0809324
:103A8000460583E08093470587E08093480585E0FD
:103A90008093490581E080934A050895CF93DF9391
:103AA0000E946F1A0E94DA18C9E7DBE10E945F19D1
:103AB0002097E1F30E94791BF9CFCF92DF92EF922A
:103AC000FF920F931F93CF93DF937C016B018A01C9
:103AD000C0E0D0E00FC0D6016D916D01D701ED912E
:103AE000FC910190F081E02DC7010995C80FD91F05
:103AF000015010400115110571F7CE01DF91CF91F2
:103B00001F910F91FF90EF90DF90CF900895EF926B
:103B1000FF920F931F938C01DC01ED91FC910190BA
:103B2000F081E02D6DE009957C01D801ED91FC91CB
:103B30000190F081E02DC8016AE009959C012E0DED
:103B40003F1DC9011F910F91FF90EF900895CF93F2
:103B5000DF93EC016115710519F420E030E00FC02E
:103B6000DB010D900020E9F71197A61BB70BE88148
:103B7000F9810280F381E02DAD0109959C01C90115
:103B8000DF91CF9108950E94A71D0895EF92FF92B3
:103B90000F931F937C010E94A71D8C01C7010E94F7
:103BA000871D080F191FC8011F910F91FF90EF90FB
:103BB0000895629FD001739FF001829FE00DF11D77
:103BC000649FE00DF11D929FF00D839FF00D749F97
:103BD000F00D659FF00D9927729FB00DE11DF91F43
:103BE000639FB00DE11DF91FBD01CF0111240895A0
:103BF00097FB092E07260AD077FD04D02ED006D0D9
:103C000000201AF4709561957F4F0895F6F790950E
:103C100081959F4F0895A1E21A2EAA1BBB1BFD019F
:103C20000DC0AA1FBB1FEE1FFF1FA217B307E4079B
:103C3000F50720F0A21BB30BE40BF50B661F771FF3
:103C4000881F991F1A9469F76095709580959095D3
:103C50009B01AC01BD01CF010895AA1BBB1B51E123
:103C600007C0AA1FBB1FA617B70710F0A61BB70BEC
:103C7000881F991F5A95A9F780959095BC01CD0191
:103C80000895EE0FFF1F0590F491E02D099411E0C7
:103C9000C4E7D1E004C0FE010E94431E2296C6374D
:083CA000D107C9F7F894FFCF2A
:103CA8002F0024504D544B3331342C302C312C30D0
:103CB8002C302C302C302C302C302C302C302C301C
:103CC8002C302C302C302C302C302C302C302C300C
:103CD8002A32390024504D544B3232302C31303096
:103CE8002A32460043617274E36F2066616C686F24
:103CF800752C206F75206EE36F20657374E120705A
:103D0800726573656E7465004C6F67446174612EEB
:103D18006C6F670043617274E36F205344204F4B0C
:103D280021000D0A00200050050000FFFFFFFF00E2
:103D38000000002C045D1D1204F103EF04DE0400F2
:103D4800000000A8055306C005F9051706F105008F
:103D58000000006B125D1D00000000B81C5D1D4EC8
:083D68001C7F1C5F1CA81C005D
:00000001FF
